{
  "_format": "hh3-artifact-1",
  "contractName": "Voting",
  "sourceName": "contracts/Voting.sol",
  "abi": [
    {
      "inputs": [
        {
          "internalType": "string",
          "name": "_question",
          "type": "string"
        },
        {
          "internalType": "string[]",
          "name": "options_",
          "type": "string[]"
        }
      ],
      "stateMutability": "nonpayable",
      "type": "constructor"
    },
    {
      "anonymous": false,
      "inputs": [
        {
          "indexed": true,
          "internalType": "bytes32",
          "name": "nullifier",
          "type": "bytes32"
        },
        {
          "indexed": true,
          "internalType": "uint256",
          "name": "optionIndex",
          "type": "uint256"
        }
      ],
      "name": "VoteCast",
      "type": "event"
    },
    {
      "inputs": [
        {
          "internalType": "uint256",
          "name": "index",
          "type": "uint256"
        }
      ],
      "name": "countAt",
      "outputs": [
        {
          "internalType": "uint256",
          "name": "",
          "type": "uint256"
        }
      ],
      "stateMutability": "view",
      "type": "function"
    },
    {
      "inputs": [
        {
          "internalType": "uint256",
          "name": "index",
          "type": "uint256"
        }
      ],
      "name": "optionAt",
      "outputs": [
        {
          "internalType": "string",
          "name": "",
          "type": "string"
        }
      ],
      "stateMutability": "view",
      "type": "function"
    },
    {
      "inputs": [],
      "name": "optionsCount",
      "outputs": [
        {
          "internalType": "uint256",
          "name": "",
          "type": "uint256"
        }
      ],
      "stateMutability": "view",
      "type": "function"
    },
    {
      "inputs": [],
      "name": "question",
      "outputs": [
        {
          "internalType": "string",
          "name": "",
          "type": "string"
        }
      ],
      "stateMutability": "view",
      "type": "function"
    },
    {
      "inputs": [
        {
          "internalType": "bytes32",
          "name": "",
          "type": "bytes32"
        }
      ],
      "name": "usedNullifiers",
      "outputs": [
        {
          "internalType": "bool",
          "name": "",
          "type": "bool"
        }
      ],
      "stateMutability": "view",
      "type": "function"
    },
    {
      "inputs": [
        {
          "internalType": "uint256",
          "name": "optionIndex",
          "type": "uint256"
        },
        {
          "internalType": "bytes32",
          "name": "nullifier",
          "type": "bytes32"
        }
      ],
      "name": "vote",
      "outputs": [],
      "stateMutability": "nonpayable",
      "type": "function"
    }
  ],
  "bytecode": "0x608060405234801562000010575f80fd5b506040516200128838038062001288833981810160405281019062000036919062000457565b5f8251116200007c576040517f08c379a0000000000000000000000000000000000000000000000000000000008152600401620000739062000538565b60405180910390fd5b600281511015620000c4576040517f08c379a0000000000000000000000000000000000000000000000000000000008152600401620000bb90620005a6565b60405180910390fd5b815f9081620000d49190620007fd565b505f5b8151811015620001d1575f828281518110620000f857620000f7620008e1565b5b6020026020010151511162000144576040517f08c379a00000000000000000000000000000000000000000000000000000000081526004016200013b906200095c565b60405180910390fd5b60018282815181106200015c576200015b620008e1565b5b6020026020010151908060018154018082558091505060019003905f5260205f20015f909190919091509081620001949190620007fd565b5060025f908060018154018082558091505060019003905f5260205f20015f90919091909150558080620001c890620009a9565b915050620000d7565b505050620009f5565b5f604051905090565b5f80fd5b5f80fd5b5f80fd5b5f80fd5b5f601f19601f8301169050919050565b7f4e487b71000000000000000000000000000000000000000000000000000000005f52604160045260245ffd5b6200023b82620001f3565b810181811067ffffffffffffffff821117156200025d576200025c62000203565b5b80604052505050565b5f62000271620001da565b90506200027f828262000230565b919050565b5f67ffffffffffffffff821115620002a157620002a062000203565b5b620002ac82620001f3565b9050602081019050919050565b5f5b83811015620002d8578082015181840152602081019050620002bb565b5f8484015250505050565b5f620002f9620002f38462000284565b62000266565b905082815260208101848484011115620003185762000317620001ef565b5b62000325848285620002b9565b509392505050565b5f82601f830112620003445762000343620001eb565b5b815162000356848260208601620002e3565b91505092915050565b5f67ffffffffffffffff8211156200037c576200037b62000203565b5b602082029050602081019050919050565b5f80fd5b5f620003a7620003a1846200035f565b62000266565b90508083825260208201905060208402830185811115620003cd57620003cc6200038d565b5b835b818110156200041b57805167ffffffffffffffff811115620003f657620003f5620001eb565b5b8086016200040589826200032d565b85526020850194505050602081019050620003cf565b5050509392505050565b5f82601f8301126200043c576200043b620001eb565b5b81516200044e84826020860162000391565b91505092915050565b5f806040838503121562000470576200046f620001e3565b5b5f83015167ffffffffffffffff81111562000490576200048f620001e7565b5b6200049e858286016200032d565b925050602083015167ffffffffffffffff811115620004c257620004c1620001e7565b5b620004d08582860162000425565b9150509250929050565b5f82825260208201905092915050565b7f456d707479207175657374696f6e0000000000000000000000000000000000005f82015250565b5f62000520600e83620004da565b91506200052d82620004ea565b602082019050919050565b5f6020820190508181035f830152620005518162000512565b9050919050565b7f4e656564203e3d2032206f7074696f6e730000000000000000000000000000005f82015250565b5f6200058e601183620004da565b91506200059b8262000558565b602082019050919050565b5f6020820190508181035f830152620005bf8162000580565b9050919050565b5f81519050919050565b7f4e487b71000000000000000000000000000000000000000000000000000000005f52602260045260245ffd5b5f60028204905060018216806200061557607f821691505b6020821081036200062b576200062a620005d0565b5b50919050565b5f819050815f5260205f209050919050565b5f6020601f8301049050919050565b5f82821b905092915050565b5f600883026200068f7fffffffffffffffffffffffffffffffffffffffffffffffffffffffffffffffff8262000652565b6200069b868362000652565b95508019841693508086168417925050509392505050565b5f819050919050565b5f819050919050565b5f620006e5620006df620006d984620006b3565b620006bc565b620006b3565b9050919050565b5f819050919050565b6200070083620006c5565b620007186200070f82620006ec565b8484546200065e565b825550505050565b5f90565b6200072e62000720565b6200073b818484620006f5565b505050565b5b818110156200076257620007565f8262000724565b60018101905062000741565b5050565b601f821115620007b1576200077b8162000631565b620007868462000643565b8101602085101562000796578190505b620007ae620007a58562000643565b83018262000740565b50505b505050565b5f82821c905092915050565b5f620007d35f1984600802620007b6565b1980831691505092915050565b5f620007ed8383620007c2565b9150826002028217905092915050565b6200080882620005c6565b67ffffffffffffffff81111562000824576200082362000203565b5b620008308254620005fd565b6200083d82828562000766565b5f60209050601f83116001811462000873575f84156200085e578287015190505b6200086a8582620007e0565b865550620008d9565b601f198416620008838662000631565b5f5b82811015620008ac5784890151825560018201915060208501945060208101905062000885565b86831015620008cc5784890151620008c8601f891682620007c2565b8355505b6001600288020188555050505b505050505050565b7f4e487b71000000000000000000000000000000000000000000000000000000005f52603260045260245ffd5b7f456d707479206f7074696f6e00000000000000000000000000000000000000005f82015250565b5f62000944600c83620004da565b915062000951826200090e565b602082019050919050565b5f6020820190508181035f830152620009758162000936565b9050919050565b7f4e487b71000000000000000000000000000000000000000000000000000000005f52601160045260245ffd5b5f620009b582620006b3565b91507fffffffffffffffffffffffffffffffffffffffffffffffffffffffffffffffff8203620009ea57620009e96200097c565b5b600182019050919050565b6108858062000a035f395ff3fe608060405234801561000f575f80fd5b5060043610610060575f3560e01c80631a1dbabb14610064578063206137aa146100825780633fad9ae0146100b257806368bb8bb6146100d05780636b8eb368146100ec578063b4d3aa841461011c575b5f80fd5b61006c61014c565b60405161007991906104aa565b60405180910390f35b61009c600480360381019061009791906104fa565b610158565b6040516100a9919061053f565b60405180910390f35b6100ba610175565b6040516100c791906105e2565b60405180910390f35b6100ea60048036038101906100e5919061062c565b610200565b005b6101066004803603810190610101919061066a565b610333565b60405161011391906104aa565b60405180910390f35b6101366004803603810190610131919061066a565b61039f565b60405161014391906105e2565b60405180910390f35b5f600180549050905090565b6003602052805f5260405f205f915054906101000a900460ff1681565b5f8054610181906106c2565b80601f01602080910402602001604051908101604052809291908181526020018280546101ad906106c2565b80156101f85780601f106101cf576101008083540402835291602001916101f8565b820191905f5260205f20905b8154815290600101906020018083116101db57829003601f168201915b505050505081565b60035f8281526020019081526020015f205f9054906101000a900460ff161561025e576040517f08c379a00000000000000000000000000000000000000000000000000000000081526004016102559061073c565b60405180910390fd5b60018054905082106102a5576040517f08c379a000000000000000000000000000000000000000000000000000000000815260040161029c906107a4565b60405180910390fd5b600160035f8381526020019081526020015f205f6101000a81548160ff0219169083151502179055506001600283815481106102e4576102e36107c2565b5b905f5260205f20015f8282546102fa919061081c565b9250508190555081817fd10f6697fe785cf6ab300b0a28e7b2403b8742966ec5535806af5b24613611a460405160405180910390a35050565b5f600280549050821061037b576040517f08c379a0000000000000000000000000000000000000000000000000000000008152600401610372906107a4565b60405180910390fd5b6002828154811061038f5761038e6107c2565b5b905f5260205f2001549050919050565b606060018054905082106103e8576040517f08c379a00000000000000000000000000000000000000000000000000000000081526004016103df906107a4565b60405180910390fd5b600182815481106103fc576103fb6107c2565b5b905f5260205f2001805461040f906106c2565b80601f016020809104026020016040519081016040528092919081815260200182805461043b906106c2565b80156104865780601f1061045d57610100808354040283529160200191610486565b820191905f5260205f20905b81548152906001019060200180831161046957829003601f168201915b50505050509050919050565b5f819050919050565b6104a481610492565b82525050565b5f6020820190506104bd5f83018461049b565b92915050565b5f80fd5b5f819050919050565b6104d9816104c7565b81146104e3575f80fd5b50565b5f813590506104f4816104d0565b92915050565b5f6020828403121561050f5761050e6104c3565b5b5f61051c848285016104e6565b91505092915050565b5f8115159050919050565b61053981610525565b82525050565b5f6020820190506105525f830184610530565b92915050565b5f81519050919050565b5f82825260208201905092915050565b5f5b8381101561058f578082015181840152602081019050610574565b5f8484015250505050565b5f601f19601f8301169050919050565b5f6105b482610558565b6105be8185610562565b93506105ce818560208601610572565b6105d78161059a565b840191505092915050565b5f6020820190508181035f8301526105fa81846105aa565b905092915050565b61060b81610492565b8114610615575f80fd5b50565b5f8135905061062681610602565b92915050565b5f8060408385031215610642576106416104c3565b5b5f61064f85828601610618565b9250506020610660858286016104e6565b9150509250929050565b5f6020828403121561067f5761067e6104c3565b5b5f61068c84828501610618565b91505092915050565b7f4e487b71000000000000000000000000000000000000000000000000000000005f52602260045260245ffd5b5f60028204905060018216806106d957607f821691505b6020821081036106ec576106eb610695565b5b50919050565b7f416c726561647920766f746564000000000000000000000000000000000000005f82015250565b5f610726600d83610562565b9150610731826106f2565b602082019050919050565b5f6020820190508181035f8301526107538161071a565b9050919050565b7f426164206f7074696f6e20696e646578000000000000000000000000000000005f82015250565b5f61078e601083610562565b91506107998261075a565b602082019050919050565b5f6020820190508181035f8301526107bb81610782565b9050919050565b7f4e487b71000000000000000000000000000000000000000000000000000000005f52603260045260245ffd5b7f4e487b71000000000000000000000000000000000000000000000000000000005f52601160045260245ffd5b5f61082682610492565b915061083183610492565b9250828201905080821115610849576108486107ef565b5b9291505056fea2646970667358221220b678d21e342942cc5b765c4dbc9802319f438510bd005fc6fb1df747cff55c4f64736f6c63430008140033",
  "linkReferences": {},
  "deployedLinkReferences": {},
  "immutableReferences": {},
  "inputSourceName": "project/contracts/Voting.sol",
  "buildInfoId": "solc-0_8_20-43b75d9242d959a399814b725fb04117a59c5c36"
}